:020000040000fa
:080000000001040000000000f3
:020000040000fa
:10000800a0030000a0030000a0030000a00300005c
:10001800a0030000a0030000a0030000a00300004c
:10002800a0030000a0030000a00300008e0a000047
:10003800a0030000a00300004e0c0000a003000075
:10004800a0030000420d0000960c0000a003000071
:10005800a0030000a0030000a0030000a00300000c
:10006800a0030000a0030000a0030000a0030000fc
:10007800a00300002402000094010000a003000077
:10008800a0030000a0030000a0030000a0030000dc
:10009800a0030000a0030000a0030000a0030000cc
:1000a800a0030000a0030000a0030000a0030000bc
:1000b800a0030000a0030000a0030000a0030000ac
:1000c800a0030000a0030000a0030000a00300009c
:1000d800a0030000a0030000a0030000a00300008c
:1000e800a0030000a0030000a0030000a00300007c
:0800f800a0030000a0030000ba
:020000040000fa
:10010800a0030000a0030000a0030000a00300005b
:10011800a0030000a0030000a0030000a00300004b
:10012800a0030000a0030000a00300008e0a000046
:10013800a0030000a00300004e0c0000a003000074
:10014800a0030000420d0000960c0000a003000070
:10015800a0030000a0030000a0030000a00300000b
:10016800a0030000a0030000a0030000a0030000fb
:10017800a00300002402000094010000a003000076
:10018800a0030000a0030000a0030000a0030000db
:10019800a0030000a0030000a0030000a0030000cb
:1001a800a0030000a0030000a0030000a0030000bb
:1001b800a0030000a0030000a0030000a0030000ab
:1001c800a0030000a0030000a0030000a00300009b
:1001d800a0030000a0030000a0030000a00300008b
:1001e800a0030000a0030000a0030000a00300007b
:0801f800a0030000a0030000b9
:020000040000fa
:100200000fce20000e7f22000e01880000000000ab
:1002100000012000200288000c00070080b32000ad
:100220000100200011000700000020000000e00095
:100230000200320000000200000000008e0c0200ec
:10024000000000000040da000000fe004440a90069
:10025000a00020000000e0000300320000002000a9
:10026000a00188004440a800000006009101880019
:10027000800078000000eb0015003700e2804000ad
:1002800032a0b4009101ba00e280400032a0b40074
:100290009102ba00e280400032a0b4000002eb00fc
:1002a000472bde00f507b200602ce10004003a00a5
:1002b0000059eb008301e900fdff3e000400370018
:1002c0006128e100010032000082eb000400070019
:1002d0001101ba000200e000e8ff3a000000060049
:1002e0003159ba008301e9000c0032002159ba00eb
:1002f0008301e900080032000400e00003003a0036
:10030000e280400032a0b400f5ff370011d9ba00f6
:100310008301e900faff3a008100e800e180400033
:1003200032a0b4000000060000a0fe00849fbe00c2
:10033000869fbe003400f80004002000a40188005d
:100340000000fa0086c0a90084668000e00f520019
:100350000c003400a46680000402e800a466880053
:10036000d46680000402e900d4668800d466800068
:10037000e00f52000e003d0034002000d4668800db
:100380000b003700a46680000402e900a466880020
:10039000d46680000402e800d4668800d466800039
:1003a000e30f5200020034000002eb00d466880024
:1003b000d4668000cfa2de003600200007002000b7
:1003c000860f5200878f5a0019003e00046001001a
:1003d00003003700070037000b0037000f0037001d
:1003e000d602a900d622a800d642a900d662a8004b
:1003f0000f003700d602a900d622a800d642a800d6
:10040000d662a9000a003700d602a800d622a900a9
:10041000d642a800d662a90005003700d602a8007f
:10042000d622a900d642a900d662a800000000008a
:100430000080fa003400f9004f03be004f02be00f6
:100440000080fe000040060000a0fe00849fbe0069
:10045000869fbe003400f80004002000a40188003c
:100460000000fa0086a0a90094668000e00f520008
:100470000c003d00b46680000402e900b466880008
:10048000c46680000402e900c4668800c466800077
:10049000e00f52000e003d0034002000c4668800ca
:1004a0000b003700b46680000402e800b4668800e0
:1004b000c46680000402e800c4668800c466800048
:1004c000e30f5200020034000002eb00c466880013
:1004d000c4668000cfa2de003600200007002000a6
:1004e000860f5200878f5a0019003e0004600100f9
:1004f00003003700070037000b0037000f003700fc
:10050000d682a900d6a2a800d6c2a900d6e2a80029
:100510000f003700d682a900d6a2a800d6c2a80034
:10052000d6e2a9000a003700d682a800d6a2a90008
:10053000d6c2a800d6e2a90005003700d682a800de
:10054000d6a2a900d6c2a900d6e2a80000000000e9
:100550000080fa003400f9004f03be004f02be00d5
:100560000080fe00004006000000fa00fb030700c8
:100570000080fa00000006000200fa00000f780078
:100580001e027800e00f520006003a0021e1a900a7
:10059000d602a900d622a900d642a900d662a90097
:1005a0001f00370021e1a9001e0278008466880040
:1005b0000002eb0004098800040980000440a00048
:1005c0000450a000040988000002eb00c408880061
:1005d0001e02780004f0a7000402ea00cfa2de00a9
:1005e0000400be00c40007000002be000401be00fb
:1005f0000000200011762400530007000002be0016
:100600000400be00a10007000002be000402780042
:10061000e408880086c0a9008ec0a80021e1a800d7
:100620000080fa00000006000200fa00000f7800c7
:100630001e027800e00f520006003a001fe1a900f8
:10064000d682a900d6a2a900d6c2a900d6e2a900e6
:100650001f0037001fe1a9001e0278009466880081
:100660000002eb00f4088800f40880000440a000b9
:100670000450a000f40888000002eb00a4088800e1
:100680001e02780004f0a7000402ea00cfa2de00f8
:100690000400be00980007000002be000401be0076
:1006a0000000200011762400270007000002be0091
:1006b0000400be00750007000002be0004027800be
:1006c000d408880086a0a9008ea0a8001fe1a80079
:1006d0000080fa00000006000000fa00a466800016
:1006e000040078000080fa00000006000200fa0012
:1006f000000f78001027fc001e027800a466880016
:100700000200fc000080fa00000006000000fa0071
:10071000b4668000040078000080fa000000060043
:100720000200fa00000f78001027fc001e0278007b
:10073000b46688000200fc000080fa000000060099
:100740000040da000000fe00889fbe008a9fbe00c5
:100750008c1f7800a6000700ad00330003866c00f4
:100760006450e1002e0032006420e10033003200ca
:100770006150e1002f0032006120e10031003200c1
:1007800085855500eb07b000090020000804200013
:10079000050037000804440089844c000a00310039
:1007a0000603430087834b000001530081815b00f7
:1007b000f8ff33000203be000800a0000804440054
:1007c00089844c00f6ff3900c639dd0083017300cf
:1007d00001003200130020008904d1000884d300f6
:1007e0000998a300050032000800a7000300a0003c
:1007f0008904d1000884d3008b05e8008904d10066
:100800000884d3000001eb000281d2003d00070004
:1008100001f0a1000cf0a70001f0a0008500370056
:100820006420e100870032000801be000200be0023
:10083000f7ff37006120e100820032006000b8005d
:10084000f3ff37000000200001f82700f0ff370019
:10085000839f68000100e00002003d00600010007e
:10086000e08018000300e00002003d00600111007c
:10087000e0811900760007004f00e00002003b0015
:1008800060001000e0801800000006000001be00bb
:10089000420007000470a70003f0a10003f8a300c2
:1008a00013003a006509b10010003200090035005c
:1008b0006928e10002003500010028000000050061
:1008c00000004000818048008502e900fcff3a00fa
:1008d00000000600f88f4200050035008100d100bd
:1008e0000080d3008502e800fcff3a00000006000b
:1008f0008000eb00000005004f89de0082017800d7
:100900006300370081002000618055000b003d002e
:100910000b00200061fe2f000100e1001d003400eb
:1009200082817100610164008904d1000884d300d0
:100930000000e800faff3a00710020006100640046
:1009400003007000020060000900320061044400ee
:10095000e0844c000988a500050032008b05e80002
:100960006808e10002003a008904d1000884d3003d
:10097000f20f20000258e10005003d00c75ddd00d8
:10098000f907b200898075000800780000000600b1
:100990000bf827008b00780000000500c70ade0076
:1009a000f107b200f50fb20008003200e1cf4200bb
:1009b000020032000170a00024000500810f7000c9
:1009c000010032000408050044000500810f70009a
:1009d00002003a00140005008502e9000000400012
:1009e00081c04800fcff3b000170a000240005000e
:1009f0000004be00e9ff07000003be000405be00be
:100a00000200be00e5ff0700844f750000000600ed
:100a10000200be006450e100050036006420e100e1
:100a2000020036000968a30001003a000800be0079
:100a30000160a0004f0678004f05be004f04be00c5
:100a400000000600f0ff2f00f1ff2700f9ff37003c
:100a50006022b800060220000000d0008180d20091
:100a60000482d2008582d2000000a000020252005f
:100a700083825a00030031000202420083824a004e
:100a80000000a1000603e900f3ff3a0000000600a1
:100a9000881f7800030478000300e00007003d0091
:100aa00060001000e080180060011900e08119006a
:100ab00002003b0001f02d00030037000400070096
:100ac00008f0a70001f0a0004f0478000000060025
:100ad000889fbe008a9fbe000082700004027100e1
:100ae00004827100260032000004be000200be0035
:100af0006011b8006b092000950220000182cf0030
:100b00000a0039000541b1000082cf00070039001a
:100b10000541b1000982cf00040039000541b10050
:100b20000882cf00010039000541b10005425200a2
:100b3000120032000a003b008281710061016400f2
:100b40008100d1000080d3008984d3000884d300c1
:100b50008b05e8000442e800f7ff3a000700370081
:100b60000804440089844c0000004800818048004b
:100b70008b05e9000442e900f9ff3a0061ff070034
:0c0b80004f05be004f04be000000060040
:020000040000fa
:100b8c0049000000454f00004600000000430000f3
:040b9c000000000055
:020000040000fa
:100ba0000600fa0010079800210798002e02900016
:100bb00004024200040f780011002000605c28004d
:100bc0007c0307000e02780021002000040078005a
:100bd000780307009e0278001e02900085007800ce
:100be000040078007303070041002000805c2800a7
:100bf000700307000080fa00000006000400fa00fd
:100c0000000f78001107980011002000d05c280028
:100c1000680307000e82e80021002000040078002d
:100c2000640307001e029000840078001e00780014
:100c30006003070041002000805c28005d0307007e
:100c40000080fa00000006000c00fa00400798003f
:100c5000510798000002eb00040f78000002eb003f
:100c6000140798000002eb00240798006602470072
:100c7000040078009303070000027800e00f5200a0
:100c8000540032001e027800e00f520004003a00c7
:100c90006e4290000402fb00140798004c003700dd
:100ca0001e027800e10f52001e003a006e429000d2
:100cb0000402fb004822dd009e02900004824200f4
:100cc000140798001e0290008482d1005e029000fa
:100cd000848f52003e003400140020002407980046
:100ce000241680004a22de00614262000404a20051
:100cf000614262000482fb00610262004a22dd0060
:100d000026168000f5bf2f00850263000482720062
:100d1000241688005e029000040242001407980026
:100d20002b0037001e02780061026200e00f5200c3
:100d30000d003a009e0278002400200011000900f6
:100d40008402d800000278000402e9000402420094
:100d5000ce029000848242006e4290000402fb00aa
:100d6000840a78001a0037009e02e900240020005f
:100d7000110009008402d800000278000402e90092
:100d800004024200ce029000848242001e03e90069
:100d900024002000110009000403d800000278009c
:100da0000402e900040242004e03900004024300e2
:100db00014037800f40f2000040363006e429000d7
:100dc0000402fb004822dd0004027300840a78005c
:100dd0001e0fe8001e027800e10f5200a3ff34004e
:100de0001e0290000402e8009e0f52009fff3d008b
:100df0002e029000e00f52000700320000000000b9
:100e000066024700040078002e0307000002780005
:100e1000e00f5200faff3a001e0290000482d10057
:100e2000040078000080fa00000006000c00fa00c0
:100e300040079800510798000002eb00040f78006b
:100e40000002eb00140798000002eb002407980052
:100e500066024700040078001a03070000027800c9
:100e6000e00f5200200032001e027800e00f520016
:100e700004003a006e4290000402fb001407980040
:100e8000180037001e027800e10f52000f003a00f0
:100e90006e4290000402fb004822dd009e0290009a
:100ea00004824200140798009e0290005e029000a7
:100eb000848f52000b003400140020002407980097
:100ec0005e02900014079800060037001e027800aa
:100ed0000482e900ce029000848242006e429000bb
:100ee000844a78001e0fe8001e027800e10f5200cd
:100ef000d7ff34001e0290000402e8009e0f52004b
:100f0000d3ff3d002e029000e00f52000700320098
:100f1000000000006602470004007800e9020700b4
:100f200000027800e00f5200faff3a001e02900023
:100f3000040078000080fa00000006000a00fa00b1
:100f4000881f780010079800210798003207980042
:100f5000430798001e0290000482e8001402780003
:100f600004017800ce0090003e00900021000700b0
:100f700000027800040f78003e029000940278008e
:100f80004e029000050a78004e0290000482e800ac
:100f9000be0290008582e80095027800050a78007c
:100fa0003e0290001e0a78003e0290000484e80091
:100fb0001e02900014027800040078002a00070046
:100fc00000027800040c78003e0290000482e800e1
:100fd000940278003e0290001402780085007800a8
:100fe000040078002a0007004f0478000080fa000f
:100ff000000006000a00fa00200798003107980058
:10100000420798004e019000be0090002e00900014
:101010004900070000027800cfa2de00048fbe0066
:10102000e4ff2700050020001e03be00840f5300cc
:10103000858f5b0008003c0014002800f5ff2f009e
:101040001e03be00840f5300858f5b000200350035
:101050001e027800f4668800f466800004007800c0
:101060000080fa00000006000200fa00000f78007d
:101070001e0278006322b90004027800e46688004a
:10108000e4668000040078000080fa00000006009a
:101090000800fa002007980031079800ae0290007f
:1010a0003e029000048f4200ae0290003e0290008b
:1010b000048252001407980094c12f009e02780009
:1010c000848f520003003d0084c12f00040f78007c
:1010d00006003700743e20009e027800848f520084
:1010e00002003400843e2000040f78009e0290002d
:1010f00094c12f00848f520003003d0084c12f0053
:1011000014079800060037009e029000743e2000ed
:10111000848f520002003400843e2000140798009f
:101120001e00780014fd07001e0090003efd070021
:101130000080fa00000006001400fa007007980012
:10114000010f9800120f98001e0a9000040fea0089
:101150001e089000910007000002be0014079800ce
:10116000250798001e0078009b0007000002780009
:10117000340798009e0278006409200004aab90090
:10118000040278006123b9001e029000ae029000b4
:101190000402420085824a000603420087834a0017
:1011a000be029000840c200004aab900040278005a
:1011b000cfa2de000602420087824a004407980060
:1011c000550798004e029000de029000823e2000fb
:1011d000030020000400be009dfd07000002be00c9
:1011e00044079800550798007e029000140278008a
:1011f000840278004e029000048252006407980036
:101200006e029000040078000080fa0000000600e2
:101210000000fa00c4438000040242008402780007
:101220000490200004834200c44380000402420072
:10123000840278000488200084824200c443800035
:1012400004024200840378000480200004824300ea
:101250000601780085007800040078002b02070062
:10126000c5438000a4032000848f520004003c008a
:10127000c44380000402e800c44388000200370031
:101280000002eb00c44388000080fa000000060062
:101290000600fa00881f78001007980021079800c0
:1012a0001e0290000482e800140f78001e029000d5
:1012b000940278002e029000050a78002e02900019
:1012c0000482e8009e0290008582e8009502780082
:1012d000050a78002e029000640242009e029000ef
:1012e000e482420095027800050a7800c1032000dc
:1012f00000802000bd0107000002780005802f005b
:10130000850242001e029000050a78001e0290002d
:101310000484e800c103200000882000b301070016
:101320000002780005802f0005024200040c7800be
:101330001e02900064044200c103200000902000bf
:10134000aa0107000002780005802f000502420074
:10135000040c78001e0290000482e8001402780059
:101360009e02520004082000848f520007003c00b7
:101370001e0290000482e800140278009e025200cf
:1013800004f82f00848f520001003d00c5c2a80060
:101390004f0478000080fa00000006000200fa0006
:1013a000000f78001e0278006123b900d44380004a
:1013b000e54380000602420087824a00d443880049
:1013c000e5438800d4438000e54380000400be006c
:1013d0000080fa00000006000400fa0010079800e0
:1013e000f44380009e029000048f52001e02900081
:1013f000f44388001e027800040078000080fa00a0
:10140000000006000200fa000002eb00040f780062
:101410001900370014c0b30004407800fee8b7009c
:101420001e027800040242008402780084b7200083
:10143000048342001e027800040242008402780005
:1014400084a72000848242001e0278000402420029
:10145000840378008497200004824300060178000a
:101460008500780004007800a80107001e027800bb
:101470000402e800040f78009e027800f4072000c0
:10148000848f5200e3ff34000002eb00040f780069
:10149000110020000e007800c1fd070001082000a7
:1014a00080972000befd07000108200080a72000d3
:1014b000bbfd07000108200080b72000b8fd070031
:1014c000000000004701070000027800e00f520012
:1014d000fcff3a000080fa00000006000000fa005d
:1014e0000002eb0024088800240880000440a100ca
:1014f0000450a000240888000002eb0004088800c3
:10150000342b2000140888008460a9008c60a80097
:1015100005e1a8000080fa0000000600801f7800a6
:10152000841f78000000fa008460a9000042eb00ec
:1015300004407800fee8b7000080fa004f0278000f
:101540004f007800004006000000fa00e3ff0700ab
:10155000850107000080fa00000006000000fa0084
:10156000c4c2a900c4e2a900c522a900c582a9007d
:10157000c542a900c5a2a900c5c2a900c5e2a9002b
:10158000c0c2a900c0e2a900c122a900c182a9006d
:10159000c142a900c1a2a900c1c2a900c1e2a9001b
:1015a000d022a900cc22a900d042a900cc42a90097
:1015b000e2e2a900e302a900e802a900e822a900ea
:1015c000dee2a900df02a900e402a900e422a900ea
:1015d000e202a900de02a900d602a900d622a900d3
:1015e000d642a900d662a900d682a900d6a2a90037
:1015f000d6c2a900d6e2a900d202a900d222a9002f
:10160000d242a900d262a900d282a900d2a2a90026
:10161000d2c2a900d2e2a900d1a2a900cda2a900fc
:10162000e842a900e862a900e442a900e462a90036
:10163000de22a800dec2a800e4c2a800e4e2a800fe
:10164000e502a800e522a800d302a800d322a80042
:10165000d342a800d362a800d382a800d3a2a800d6
:10166000d3c2a800d3e2a8000080fa000000060060
:020000040000fa
:10167000bc0c00001400000000000000dc0c0000a6
:1016800004000000000000000008000078000000d6
:10169000000000008008000078000000000000004a
:1016a0000009000078000000000000007808000039
:1016b0000800000002000000000000000000000020
:1016c00000000000780c0000440000000200000050
:1016d000000000000000000000000000000000000a
:1016e00000000000000000000000000000000000fa
:1016f00000000000000000000000000000000000ea
:1017000000000000000000000000000000000000d9
:1017100000000000000000000000000000000000c9
:10172000000000000000000000000000f8080000b9
:1017300006000000020000000000000000000000a1
:10174000d00c00000c000000000000007809000030
:101750000003000000000000fe080000020000007e
:0c1760000200000000000000000000007b
:020000040000fa
:10176c000000fa000002eb0024158800241580000c
:10177c00141588001415800004158800a802a80010
:10178c00a822a800a842a900a862a900a882a900c2
:10179c00a8a2a900a8c2a900a8e2a900a902a900b0
:1017ac00a922a900a942a900a962a900a982a9009d
:1017bc00a9a2a900a9c2a900a9e2a900240120009c
:1017cc00241588007400200034158800a1e2a800bc
:1017dc000080fa00000006000400fa0010079800d0
:1017ec001e029000ef0f5200020036000002eb00c8
:1017fc00140037001e02900034158800a022a800a7
:10180c000002eb00040f7800010037001e0fe80007
:10181c00740220009e027800848f5200fbff34007b
:10182c008560a900a022a90000000000250480000a
:10183c000480200004826200e00f5200fbff3200a3
:10184c0004148000040078000080fa0000000600f8
:10185c000000fa000002eb00840888008408800075
:10186c000440a0000450a000840888000002eb0093
:10187c0034088800046821006408880084c0a9002a
:10188c008cc0a80011e1a8000080fa00000006003e
:10189c003600f800809fbe00829fbe00849fbe0071
:1018ac00869fbe000000fa0061cc2000c0cb200057
:1018bc0074fe0700c3cc200022cc200061cc200099
:1018cc00c0cb20009afd070084c0a9000002eb00e9
:1018dc00340888000080fa004f03be004f02be009f
:1018ec004f01be004f00be003600f900004006005c
:1018fc000000fa0016ff070018fb07007c00070029
:10190c0097ff0700d2ff07000080fa0000000600d6
:10191c000000fa00f6ff07003afe0700feff370052
:10192c008540a900809fbe00821f7800fc08e20061
:10193c0015003200f808e20016003200fa08e20046
:10194c0014003200c1478000420020000f22af007b
:10195c00feff3700d04780000000e0000700320097
:10196c000000e900faa8b7003140780010e2b70097
:10197c000201e900f5ff3a0002003700f828ef00f9
:10198c0001003700c14788004f0178004f00be00ae
:10199c000040060000002000e04788004f0178005e
:1019ac004f00be0000400600fc08e200feff3a00bb
:1019bc008d40a9008100e900d1478800b040780033
:1019cc0081108800c047880011002000e147880082
:1019dc008d40a80000000600e047800000000600d3
:1019ec000c00fa0040079800510798006022b800dc
:1019fc0014079800250798000002eb00040f7800ec
:101a0c000d0037001e02780004024200ce02900046
:101a1c000482420014027800cfa2de001e03900064
:101a2c00ae0390000602420087824a001407980019
:101a3c00250798001e0fe8005e0290009e027800b9
:101a4c00848f5200efff35005e029000cfa2de00c3
:101a5c000401be001e009000ae00900079fb070050
:101a6c000002be00340798003e029000040078008b
:101a7c000080fa0000000600809fbe008520a900af
:101a8c00c0658000f003b20081c7200081004000d7
:101a9c000000eb0012c2bf0080487800b82cec00ac
:101aac004f00be0000400600c0658000d16580007c
:101abc000100500000000600c1658000d265800066
:101acc000208e10008003200f203b20081c72000d6
:101adc00028140009240780001487800ba2cec005a
:101aec0010002000000006000000eb0000000600c3
:101afc000000fa001aff07000080fa000000060040
:101b0c000600fa00000f78001107980022079800d1
:101b1c0005e1a900500020002fff0700000278000b
:101b2c009e027800840a7800600020002aff0700db
:101b3c00000278009e029000840a78007000200059
:101b4c0025ff070000027800ae029000840a78009e
:101b5c0005e1a8000080fa00000006000c22ef004e
:101b6c000e22ef000ee2a9000ec2a9008520a900ea
:101b7c008d20a8000de2a80070002000a0108800a5
:101b8c008540a9008d40a80081e0a900c004800018
:101b9c00f1002f0000806000015520000080400003
:101bac00c00488000fe2a8000f42a800b82cef0078
:081bbc00ba2cef000000060046
:020000040000fa
:0200000401f009
:04000000e6bf000057
:020000040000fa
:0200000401f009
:04000400ff7f00007a
:020000040000fa
:0200000401f009
:040008007fff000076
:020000040000fa
:0200000401f009
:04001400ffff0000ea
:00000001FF
