:020000040000fa
:080000000001040000000000f3
:020000040000fa
:04000800ac03000045
:020000040000fa
:04000c00ac03000041
:020000040000fa
:04001000ac0300003d
:020000040000fa
:04001400ac03000039
:020000040000fa
:04001800ac03000035
:020000040000fa
:04001c00ac03000031
:020000040000fa
:04002000ac0300002d
:020000040000fa
:04002400ac03000029
:020000040000fa
:04002800ac03000025
:020000040000fa
:04002c00ac03000021
:020000040000fa
:04003000ac0300001d
:020000040000fa
:040034001a080000a6
:020000040000fa
:04003800ac03000015
:020000040000fa
:04003c00ac03000011
:020000040000fa
:040040007007000045
:020000040000fa
:04004400ac03000009
:020000040000fa
:04004800ac03000005
:020000040000fa
:04004c00860b00001f
:020000040000fa
:04005000260b00007b
:020000040000fa
:04005400ac030000f9
:020000040000fa
:04005800ac030000f5
:020000040000fa
:04005c00ac030000f1
:020000040000fa
:04006000ac030000ed
:020000040000fa
:04006400ac030000e9
:020000040000fa
:04006800ac030000e5
:020000040000fa
:04006c00ac030000e1
:020000040000fa
:04007000ac030000dd
:020000040000fa
:04007400ac030000d9
:020000040000fa
:04007800ac030000d5
:020000040000fa
:04007c00540200002a
:020000040000fa
:04008000c8010000b3
:020000040000fa
:04008400ac030000c9
:020000040000fa
:04008800ac030000c5
:020000040000fa
:04008c00ac030000c1
:020000040000fa
:04009000ac030000bd
:020000040000fa
:04009400ac030000b9
:020000040000fa
:04009800ac030000b5
:020000040000fa
:04009c00ac030000b1
:020000040000fa
:0400a000ac030000ad
:020000040000fa
:0400a400ac030000a9
:020000040000fa
:0400a800ac030000a5
:020000040000fa
:0400ac00ac030000a1
:020000040000fa
:0400b000ac0300009d
:020000040000fa
:0400b400ac03000099
:020000040000fa
:0400b800ac03000095
:020000040000fa
:0400bc00ac03000091
:020000040000fa
:0400c000ac0300008d
:020000040000fa
:0400c400ac03000089
:020000040000fa
:0400c800ac03000085
:020000040000fa
:0400cc00ac03000081
:020000040000fa
:0400d000ac0300007d
:020000040000fa
:0400d400ac03000079
:020000040000fa
:0400d800ac03000075
:020000040000fa
:04010800ac03000044
:020000040000fa
:04010c00ac03000040
:020000040000fa
:04011000ac0300003c
:020000040000fa
:04011400ac03000038
:020000040000fa
:04011800ac03000034
:020000040000fa
:04011c00ac03000030
:020000040000fa
:04012000ac0300002c
:020000040000fa
:04012400ac03000028
:020000040000fa
:04012800ac03000024
:020000040000fa
:04012c00ac03000020
:020000040000fa
:04013000ac0300001c
:020000040000fa
:04013400ac03000018
:020000040000fa
:04013800ac03000014
:020000040000fa
:04013c00ac03000010
:020000040000fa
:04014000ac0300000c
:020000040000fa
:04014400ac03000008
:020000040000fa
:04014800ac03000004
:020000040000fa
:04014c00ac03000000
:020000040000fa
:04015000ac030000fc
:020000040000fa
:04015400ac030000f8
:020000040000fa
:04015800ac030000f4
:020000040000fa
:04015c00ac030000f0
:020000040000fa
:04016000ac030000ec
:020000040000fa
:04016400ac030000e8
:020000040000fa
:04016800ac030000e4
:020000040000fa
:04016c00ac030000e0
:020000040000fa
:04017000ac030000dc
:020000040000fa
:04017400ac030000d8
:020000040000fa
:04017800ac030000d4
:020000040000fa
:04017c00ac030000d0
:020000040000fa
:04018000ac030000cc
:020000040000fa
:04018400ac030000c8
:020000040000fa
:04018800ac030000c4
:020000040000fa
:04018c00ac030000c0
:020000040000fa
:04019000ac030000bc
:020000040000fa
:04019400ac030000b8
:020000040000fa
:04019800ac030000b4
:020000040000fa
:04019c00ac030000b0
:020000040000fa
:0401a000ac030000ac
:020000040000fa
:0401a400ac030000a8
:020000040000fa
:0401a800ac030000a4
:020000040000fa
:0401ac00ac030000a0
:020000040000fa
:0401b000ac0300009c
:020000040000fa
:0401b400ac03000098
:020000040000fa
:0401b800ac03000094
:020000040000fa
:0401bc00ac03000090
:020000040000fa
:0401c000ac0300008c
:020000040000fa
:0401c400ac03000088
:020000040000fa
:0401c800ac03000084
:020000040000fa
:0401cc00ac03000080
:020000040000fa
:0401d000ac0300007c
:020000040000fa
:0401d400ac03000078
:020000040000fa
:0401d800ac03000074
:020000040000fa
:10020000cfbc20000e7b22000e0188000000000001
:10021000000020000000e000020032000001200089
:1002200020028800140007004d0107000000e000d4
:1002300003003a004098200001002000020037002f
:100240000000200001002000810f7000010032003a
:1002500014000700000020000000e000020032004f
:10026000000002000000000024080200000000005e
:100270000040da000000fe004440a900a000200079
:100280000000e0000300320000002000a001880010
:100290004440a800000006008a1f78008b1f7800e9
:1002a0000000060091018800800478000000eb0047
:1002b0001a003700e284440032a0b4009905ba0065
:1002c000e284440032a0b4009906ba00e2844400fb
:1002d00032a0b4000006eb00476fde00fd07b2005d
:1002e000636ce10003003a00ebff07000000eb0045
:1002f0000a003700606ce10004003a00005deb008a
:100300008b05e900fdff3e00040037006168e10055
:10031000010032000086eb000b00070019c7ba008d
:100320001905ba000e04e00003003a000a00e000dc
:10033000e0ff3a0000000600fe07b2009e018800c0
:100340008a047800f5ff3700395dba008b05e900b3
:100350000c003200295dba008b05e900080032006c
:100360000c00e00003003a00e284440032a0b40034
:10037000f5ff370019ddba008b05e900faff3a00f6
:100380008904e800e184440032a0b40000000600c3
:1003900000a0fe003400f800881f7800080020004c
:1003a000a80188004f0478000000fa0086c0a90068
:1003b000204280000000e0000c0034004042800039
:1003c0000000e80040428800704280000000e90020
:1003d00070428800704280000000e0000d003d0087
:1003e00030002000704288000a0037004042800040
:1003f0000000e90040428800704280000000e800f0
:100400007042880070428000e30f50000100340009
:100410004e28ef0070428000e10f50000f003200c4
:10042000e10f500003003c000000e0000600320035
:1004300019003700e20f50000d003200e30f5000aa
:100440001000320014003700d602a900d622a800fe
:10045000d642a900d662a8000f003700d602a90034
:10046000d622a800d642a800d662a9000a0037000a
:10047000d602a800d622a900d642a800d662a900ba
:1004800005003700d602a800d622a900d642a9004e
:10049000d662a800000000000080fa003400f900d5
:1004a0000080fe000040060000a0fe003400f800be
:1004b000881f780008002000a80188004f047800f9
:1004c0000000fa0086a0a900304280000000e00091
:1004d0000c003d00504280000000e90050428800be
:1004e000604280000000e9006042880060428000b5
:1004f0000000e0000d003d00300020006042880058
:100500000a003700504280000000e8005042880096
:10051000604280000000e800604288006042800085
:10052000e30f5000010034004c28ef0060428000cf
:10053000e10f50000f003200e10f500003003c00bb
:100540000000e0000600320019003700e20f500002
:100550000d003200e30f500010003200140037008d
:10056000d682a900d6a2a800d6c2a900d6e2a800c9
:100570000f003700d682a900d6a2a800d6c2a800d4
:10058000d6e2a9000a003700d682a800d6a2a900a8
:10059000d6c2a800d6e2a90005003700d682a8007e
:1005a000d6a2a900d6c2a900d6e2a8000000000089
:1005b0000080fa003400f9000080fe0000400600d0
:1005c0000000fa00a20307000080fa000000060005
:1005d0000200fa00000f78001e0078000000e00022
:1005e00006003a0021e1a900d602a900d622a900fe
:1005f000d642a900d662a9001800370021e1a9005f
:100600009e007800214288002021ef00010980002f
:100610000003200001007000000988001821ef008d
:100620001e00780000f0a7000000ea00cf80de0086
:10063000a90007000001be00000020001176240080
:10064000480007008900070000007800e0088800e3
:1006500086c0a9008ec0a80021e1a8000080fa0091
:10066000000006000200fa00000f78001e0078006b
:100670000000e00006003a001fe1a900d682a900b0
:10068000d6a2a900d6c2a900d6e2a9001800370058
:100690001fe1a9009e007800314288001e21ef0072
:1006a000f10880000003200001007000f0088800bd
:1006b0001421ef001e00780000f0a7000000ea00ff
:1006c000cf80de00840007000001be000000200093
:1006d0001176240023000700640007000000780062
:1006e000d008880086a0a9008ea0a8001fe1a8005d
:1006f0000080fa00000006000000fa00404280007e
:100700000080fa00000006000200fa00000f7800e6
:100710001027fc009e007800414288000200fc0087
:100720000080fa00000006000000fa00504280003d
:100730000080fa00000006000200fa00000f7800b6
:100740001027fc009e007800514288000200fc0047
:100750000080fa00000006000040da000000fe0001
:1007600000000500889fbe008a9fbe008c1f780095
:10077000970007009e00330003866c006450e10080
:100780002e0032006420e100330032006150e100ad
:100790002f0032006120e1003100320085855500d4
:1007a000eb07b00009002000080420000500370016
:1007b0000804440089844c000a0031000603430009
:1007c00087834b000001530081815b00f8ff3300f9
:1007d0000203be000800a0000804440089844c0005
:1007e000f6ff3900c639dd008301730001003200d5
:1007f000130020008904d1000884d3000998a300c5
:10080000050032000800a7000300a0008904d10001
:100810000884d3008b05e8008904d1000884d30044
:100820000001eb000281d2002e00070001f0a100c0
:100830000cf0a70001f0a000760037006420e10072
:10084000780032000801be000200be00f7ff37004a
:100850006120e100730032006000b800f3ff370050
:100860000000200001f82700f0ff37000001be0063
:10087000420007000470a70003f0a10003f8a300e2
:1008800013003a006509b10010003200090035007c
:100890006928e10002003500010028000000050081
:1008a00000004000818048008502e900fcff3a001a
:1008b00000000600f88f4200050035008100d100dd
:1008c0000080d3008502e800fcff3a00000006002b
:1008d0008000eb00000005004f89de0082017800f7
:1008e0005300370081002000618055000b003d005f
:1008f0000b00200061fe2f000100e1001d0034000c
:1009000082817100610164008904d1000884d300f0
:100910000000e800faff3a00710020006100640066
:10092000030070000200600009003200610444000e
:10093000e0844c000988a500050032008b05e80022
:100940006808e10002003a008904d1000884d3005d
:10095000f20f20000258e10005003d00c75ddd00f8
:10096000f907b200898075000800780000000600d1
:100970000bf827008b00780000000500c70ade0096
:10098000f107b200f50fb20008003200e1cf4200db
:10099000020032000170a00024000500810f7000e9
:1009a000010032000408050044000500810f7000ba
:1009b00002003a00140005008502e9000000400032
:1009c00081c04800fcff3b000170a000240005002e
:1009d0000004be00e9ff07000003be000405be00de
:1009e0000200be00e5ff0700844f7500000006000e
:1009f0000200be006450e100050036006420e10002
:100a0000020036000968a30001003a000800be0099
:100a10000160a0004f0678004f05be004f04be00e5
:100a200000000600f0ff2f00f1ff2700f9ff37005c
:100a3000881f7800030478000300e00007003d00f1
:100a400060001000e080180060011900e0811900ca
:100a500002003b0001f02d000300370004000700f6
:100a600008f0a70001f0a0004f0478000000060085
:100a7000889fbe008a9fbe00008270000402710041
:100a800004827100260032000004be000200be0095
:100a90006011b8006b092000950220000182cf0090
:100aa0000a0039000541b1000082cf00070039007b
:100ab0000541b1000982cf00040039000541b100b1
:100ac0000882cf00010039000541b1000542520003
:100ad000120032000a003b00828171006101640053
:100ae0008100d1000080d3008984d3000884d30022
:100af0008b05e8000442e800f7ff3a0007003700e2
:100b00000804440089844c000000480081804800ab
:100b10008b05e9000442e900f9ff3a0071ff070084
:0c0b20004f05be004f04be0000000600a0
:020000040000fa
:100b2c0049000000454f0000460000000043000053
:040b3c0000000000b5
:020000040000fa
:100b40000600fa0010079800210798002e00900078
:100b500000004000000f78001100200060592800bc
:100b6000dc0207000e00780021002000d9020700f7
:100b70009e0078001e009000d60207004100200071
:100b800080592800d30207000080fa000000060008
:100b90000400fa00000f78001107980011002000ef
:100ba000d0592800cb0207000e80e8002100200069
:100bb000c80207001e009000800078001e00780028
:100bc000c40207004100200080592800c10207002c
:100bd0000080fa00000006000e00fa0040079800ae
:100be000510798000000eb00000f78000000eb00b8
:100bf000100798000000eb002007980066004700ef
:100c0000d20207000000e000550032001e0078000c
:100c10000000e00004003a006e4090000000fb007d
:100c2000100798004d0037001e007800e10f5000bb
:100c30001d003a006e4090000000fb004800dd00ff
:100c40009e00900000804000100798001e00900059
:100c50008080d1005e009000808f50003f00340003
:100c60001000200020079800201680004a00de00b7
:100c7000614060000004a200614060000080fb0051
:100c8000610060004a00dd002116800001a0a10083
:100c900001007000201688005e00900000004000f7
:100ca000100798002d0037001e00780061006000da
:100cb0000000e0000d003a009e00780020002000b7
:100cc00000017800110009008200d8000000e9004e
:100cd00000004000ce00900000804000ee409000f8
:100ce0008100fb00010878001c0037009e00e9002d
:100cf0002000200080017800110009008300d80046
:100d00000000e90000004000ce009000808040001c
:100d1000610798001e01e900200020008001780092
:100d2000110009000301d8000000e90000004000a4
:100d30004e0190000000410010017800f00f2000eb
:100d4000000161006e4090000000fb004800dd00e3
:100d500002007000ee009000800878001e0fe8008e
:100d60001e007800e10f5000a4ff34001e00900028
:100d70000000e8009e0f5000a0ff3d002e009000f4
:100d80000000e0000500320000000000660047009f
:100d90006e0207000000e000fcff3a001e00900019
:100da0000080d1000080fa00000006000c00fa006c
:100db00040079800510798000000eb00000f7800f2
:100dc0000000eb00100798000000eb0020079800df
:100dd000660047005d0207000000e00020003200ce
:100de0001e0078000000e00004003a006e40900011
:100df0000000fb0010079800180037001e00780064
:100e0000e10f50000f003a006e4090000000fb0020
:100e10004800dd009e009000008040001007980010
:100e20009e0090005e009000808f50000b00340008
:100e30001000200020079800de00900011079800a5
:100e4000060037001e0078000080e900ce00900008
:100e500000804000ee409000014878001e0fe8003e
:100e60001e007800e10f5000d9ff34001e009000f2
:100e70000000e8009e0f5000d5ff3d002e009000be
:100e80000000e0000500320000000000660047009e
:100e90002e0207000000e000fcff3a001e00900058
:100ea0000080fa00000006000000fa001021ef00a8
:100eb0008108800000032000010070008008880085
:100ec0000621ef00006821006008880084c0a900a6
:100ed0008cc0a80011e1a8000080fa000000060004
:100ee0003600f800809fbe00829fbe00849fbe0037
:100ef000869fbe000000fa0041852000008520008a
:100f0000750007004185200000852000ab00070028
:100f100084c0a9000621ef000080fa004f03be0044
:100f20004f02be004f01be004f00be003600f90068
:100f3000004006000200fa000000eb00000f7800fd
:100f40001500370010c0b30058e8b7001e00780045
:100f50000000400080007800c0ac2000008140000c
:100f60001e0078000000400080007800c09c200037
:100f7000808040001e007800000040008001780062
:100f8000c08c200000804100020207001e00780093
:100f90000000e800000f78009e007800f0072000b5
:100fa000808f5000e7ff34000000eb00000f780056
:100fb000110020000e007800e1fe0700010820006b
:100fc000c08c2000defe070001082000c09c20002d
:100fd000dbfe070001082000c0ac2000d8fe07009f
:100fe00000000000c70107000000e000fdff3a001c
:100ff0000080fa00000006000000fa000421ef0063
:1010000021088000f0fc2f00008060000050a0004c
:10101000200888000021ef00302b200010088800f5
:101020008460a9008c60a80005e1a8000080fa0097
:10103000000006000000fa008460a9005868ef0074
:101040000080fa00004006000000fa0096ff07004a
:10105000ff0007005afd0700ca010700e101070071
:101060004001070001000700feff37000000fa0002
:1010700010438000000040008000780000882000bd
:101080000081400010438000000040008000780094
:10109000008a200080804000104380000000400053
:1010a00080017800008c200000804100b901070019
:1010b00010438000e40f500004003c001043800007
:1010c0000000e80010438800010037006228ef00ac
:1010d0000080fa00000006000400fa00881f780073
:1010e000000f78001107980061002000008c20009c
:1010f000d301070001802f00810040001e0078000e
:10110000010878001e84e80061002000008a2000a9
:10111000cb01070001802f0001004000000c780087
:101120009e00780064844000610020000088200058
:10113000c301070001802f0001004000000c78006f
:101140004f0478000080fa00000006000800fa0052
:1011500020079800310798008e0078003e0090002c
:10116000100007002e009000900078001e009000f4
:10117000808040002e009000010878002e00900032
:101180000080e800ae0090008180e8001101780046
:101190009e00780081004100010878000080fa007c
:1011a000000006000400fa00000f78001107980004
:1011b0000000eb000080fa00000006000400fa00c6
:1011c000881f7800000f7800110798001e80e80043
:1011d00010007800110007009e0090008008780041
:1011e0001e0090000084e8001e00780010007800c7
:1011f00012000700000c78001e0090000080e8003c
:10120000900078001e009000100078001200070087
:101210004f0478000080fa00000006000200fa0087
:10122000000f7800004380001e004000004388004b
:10123000004380000080fa00000006000400fa006d
:10124000100798009e009000010f78001e007800a3
:101250000080fa00000006000800fa00200798004d
:1012600031079800ae0090003e009000008f4000d3
:10127000ae0090003e0090000080500010079800e3
:1012800080c12f009e007800808f500002003d003a
:1012900080c12f00000f7800803e20009e00780063
:1012a000808f500002003400803e2000000f780044
:1012b0009e00900080c12f00808f500002003d00f2
:1012c00080c12f00100798009e009000803e2000f3
:1012d000808f500002003400803e200010079800ec
:1012e000ae0090003e00900000804000b8fc070077
:1012f000ae0090003e00900000805000d9fc070036
:081300000080fa000000060065
:020000040000fa
:10130800cc080000000300000000000050080000a6
:101318000a00000000000000600800000200000051
:1013280000000000c02700002000000002000000ac
:1013380000400000205515000010cc000cab0a003e
:10134800250900000800000000000000000000005f
:10135800000000000000000000040000c0080000b9
:101368000c0000000200000000080000080008004f
:101378000008000008000800a00800000c00000099
:101388000200000000080000080008000008000033
:1013980008000800800800000c000000020000009f
:1013a8000008000008000800000800000800080005
:1013b80062080000020000000000000000080000b1
:1013c80044000000020000000000000000000000cf
:1013d8000000000000000000000000000000000005
:1013e80000000000000000000000000000000000f5
:1013f80000000000000000000000000000000000e5
:1014080000000000000000000000000000000000d4
:1014180000000000000000000000000000000000c4
:10142800000000005a08000006000000020000004a
:101438000000000000000000440800000c0000004c
:0814480000000000000000009c
:020000040000fa
:101450000000fa00c4c2a900c4e2a900c522a90084
:10146000c582a900c542a900c5a2a900c5c2a9009c
:10147000c5e2a900c0c2a900c0e2a900c122a9001a
:10148000c182a900c142a900c1a2a900c1c2a9008c
:10149000c1e2a900d022a900cc22a900d042a90013
:1014a000cc42a900e2e2a900e302a900e802a900f7
:1014b000e822a900dee2a900df02a900e402a900f7
:1014c000e422a900e202a900de02a900d602a900d6
:1014d000d622a900d642a900d662a900d682a900c8
:1014e000d6a2a900d6c2a900d6e2a900d202a900bc
:1014f000d222a900d242a900d262a900d282a900b8
:10150000d2a2a900d2c2a900d2e2a900d1a2a90008
:10151000cda2a900e842a900e862a900e442a9001e
:10152000e462a900de22a800dec2a800e4c2a8008e
:10153000e4e2a800e502a800e522a800d302a80082
:10154000d322a800d342a800d362a800d382a80067
:10155000d3a2a800d3c2a800d3e2a8000080fa005a
:10156000000006000000fa00a422ef002015800011
:10157000101588001015800000158800a802a8002a
:10158000a822a800a842a900a862a900a882a900d0
:10159000a8a2a900a8c2a900a8e2a900a902a900be
:1015a000a922a900a942a900a962a900a982a900ab
:1015b000a9a2a900a9c2a900a9e2a90020012000ae
:1015c000201588007000200030158800a1e2a800d6
:1015d0000080fa00000006000400fa0010079800de
:1015e0001e009000ef0f5000020036000000eb00dc
:1015f000140037009e00900031158800a022a8003a
:101600000000eb00000f7800010037001e0fe8001b
:10161000700220009e007800808f5000fbff340095
:101620008560a900a022a90000000000210480001c
:1016300000802000008060000000e000fbff32001e
:10164000001480000080fa00000006008540a90018
:10165000809fbe00821f78005e08e2001500320005
:101660005a08e200160032005c08e2001400320062
:10167000d1428000420020000f22af00feff370061
:10168000e04280000000e000070032000000e900b6
:101690005ca8b7003140780010e2b7000201e90011
:1016a000f5ff3a00020037005a28ef00010037002a
:1016b000d14288004f0178004f00be000040060074
:1016c00000002000f04288004f0178004f00be006b
:1016d000004006005e08e200feff3a008d40a900cf
:1016e0008100e900e1428800b04078008110880064
:1016f000d042880011002000f14288008d40a800ef
:1017000000000600f042800000000600809fbe003e
:101710008520a90000428000f003b2000180200073
:10172000810040000000eb0012c2bf00804878003a
:101730004028ec004f00be00004006000042800040
:1017400011428000010050000000060001428000ac
:10175000124280000208e10008003200f203b200e9
:10176000018020000281400092407800014878000a
:101770004228ec0010002000000006000000eb00f2
:10178000000006000000fa0076ff07000080fa0063
:10179000000006000600fa00000f7800110798000c
:1017a0002207980005e1a900500020008aff0700e9
:1017b0009e007800800878006000200086ff070007
:1017c0009e009000800878007000200082ff0700d3
:1017d000ae0090008008780005e1a8000080fa00c3
:1017e000000006000c22ef000e22ef000ee2a9001e
:1017f0000ec2a9008520a9008d20a8000de2a80036
:1018000070002000a01088008540a9008d40a8002d
:1018100081e0a900c0048000f1002f00008060007a
:101820000155200000804000c00488000fe2a8009d
:101830000f42a8004028ef004228ef0000000600f9
:10184000881f78008a1f780000047800023e81001b
:1018500001014100010141002200b10002057800b0
:10186000460cc30001800900420cc2001001800038
:0c1870004f0578004f04780000000600cf
:020000040000fa
:0200000401f009
:04000000e6bf000057
:020000040000fa
:0200000401f009
:04000400ff7f00007a
:020000040000fa
:0200000401f009
:040008007fff000076
:020000040000fa
:0200000401f009
:04001400ffff0000ea
:00000001FF
