:020000040000fa
:080000000001040000000000f3
:020000040000fa
:10000800a0030000a0030000a0030000a00300005c
:10001800a0030000a0030000a0030000a00300004c
:10002800a0030000a0030000a0030000dc090000fa
:10003800a0030000a003000024090000a0030000a2
:10004800a0030000240e0000780d0000a0030000ab
:10005800a0030000a0030000a0030000a00300000c
:10006800a0030000a0030000a0030000a0030000fc
:10007800a00300002402000094010000a003000077
:10008800a0030000a0030000a0030000a0030000dc
:10009800a0030000a0030000a0030000a0030000cc
:1000a800a0030000a0030000a0030000a0030000bc
:1000b800a0030000a0030000a0030000a0030000ac
:1000c800a0030000a0030000a0030000a00300009c
:1000d800a0030000a0030000a0030000a00300008c
:1000e800a0030000a0030000a0030000a00300007c
:0800f800a0030000a0030000ba
:020000040000fa
:10010800a0030000a0030000a0030000a00300005b
:10011800a0030000a0030000a0030000a00300004b
:10012800a0030000a0030000a0030000dc090000f9
:10013800a0030000a003000024090000a0030000a1
:10014800a0030000240e0000780d0000a0030000aa
:10015800a0030000a0030000a0030000a00300000b
:10016800a0030000a0030000a0030000a0030000fb
:10017800a00300002402000094010000a003000076
:10018800a0030000a0030000a0030000a0030000db
:10019800a0030000a0030000a0030000a0030000cb
:1001a800a0030000a0030000a0030000a0030000bb
:1001b800a0030000a0030000a0030000a0030000ab
:1001c800a0030000a0030000a0030000a00300009b
:1001d800a0030000a0030000a0030000a00300008b
:1001e800a0030000a0030000a0030000a00300007b
:0801f800a0030000a0030000b9
:020000040000fa
:100200000fcd20000e7b22000e01880000000000b0
:1002100000012000200288000c00070060be2000c2
:100220000100200011000700000020000000e00095
:10023000020032000000020000000000f20902008b
:10024000000000000040da000000fe004440a90069
:10025000a00020000000e0000300320000002000a9
:10026000a00188004440a800000006009101880019
:10027000800078000000eb0015003700e2804000ad
:1002800032a0b4009101ba00e280400032a0b40074
:100290009102ba00e280400032a0b4000002eb00fc
:1002a000472bde00f507b200602ce10004003a00a5
:1002b0000059eb008301e900fdff3e000400370018
:1002c0006128e100010032000082eb000400070019
:1002d0001101ba000200e000e8ff3a000000060049
:1002e0003159ba008301e9000c0032002159ba00eb
:1002f0008301e900080032000400e00003003a0036
:10030000e280400032a0b400f5ff370011d9ba00f6
:100310008301e900faff3a008100e800e180400033
:1003200032a0b4000000060000a0fe00849fbe00c2
:10033000869fbe003400f80004002000a40188005d
:100340000000fa0086c0a90024668000e00f520079
:100350000c003400446680000402e8004466880013
:10036000746680000402e900746688007466800088
:10037000e00f52000e003d0034002000746688003b
:100380000b003700446680000402e90044668800e0
:10039000746680000402e800746688007466800059
:1003a000e30f5200020034000002eb007466880084
:1003b00074668000cfa2de00360020000700200017
:1003c000860f5200878f5a0019003e00046001001a
:1003d00003003700070037000b0037000f0037001d
:1003e000d602a900d622a800d642a900d662a8004b
:1003f0000f003700d602a900d622a800d642a800d6
:10040000d662a9000a003700d602a800d622a900a9
:10041000d642a800d662a90005003700d602a8007f
:10042000d622a900d642a900d662a800000000008a
:100430000080fa003400f9004f03be004f02be00f6
:100440000080fe000040060000a0fe00849fbe0069
:10045000869fbe003400f80004002000a40188003c
:100460000000fa0086a0a90034668000e00f520068
:100470000c003d00546680000402e90054668800c8
:10048000646680000402e900646688006466800097
:10049000e00f52000e003d0034002000646688002a
:1004a0000b003700546680000402e80054668800a0
:1004b000646680000402e800646688006466800068
:1004c000e30f5200020034000002eb006466880073
:1004d00064668000cfa2de00360020000700200006
:1004e000860f5200878f5a0019003e0004600100f9
:1004f00003003700070037000b0037000f003700fc
:10050000d682a900d6a2a800d6c2a900d6e2a80029
:100510000f003700d682a900d6a2a800d6c2a80034
:10052000d6e2a9000a003700d682a800d6a2a90008
:10053000d6c2a800d6e2a90005003700d682a800de
:10054000d6a2a900d6c2a900d6e2a80000000000e9
:100550000080fa003400f9004f03be004f02be00d5
:100560000080fe00004006000000fa00df040700e3
:100570000080fa00000006000200fa00000f780078
:100580001e027800e00f520006003a0021e1a900a7
:10059000d602a900d622a900d642a900d662a90097
:1005a0001f00370021e1a9001e02780024668800a0
:1005b0000002eb0004098800040980000440a00048
:1005c0000450a000040988000002eb00c408880061
:1005d0001e02780004f0a7000402ea00cfa2de00a9
:1005e0000400be00430107000002be000401be007b
:1005f0000000200011762400b10007000002be00b8
:100600000400be00200107000002be0004027800c2
:10061000e408880086c0a9008ec0a80021e1a800d7
:100620000080fa00000006000200fa00000f7800c7
:100630001e027800e00f520006003a001fe1a900f8
:10064000d682a900d6a2a900d6c2a900d6e2a900e6
:100650001f0037001fe1a9001e02780034668800e1
:100660000002eb00f4088800f40880000440a000b9
:100670000450a000f40888000002eb00a4088800e1
:100680001e02780004f0a7000402ea00cfa2de00f8
:100690000400be00170107000002be000401be00f6
:1006a0000000200011762400850007000002be0033
:1006b0000400be00f40007000002be00040278003f
:1006c000d408880086a0a9008ea0a8001fe1a80079
:1006d0000080fa00000006000000fa004466800076
:1006e000040078000080fa00000006000200fa0012
:1006f000000f78001027fc001e0278004466880076
:100700000200fc000080fa00000006000000fa0071
:1007100054668000040078000080fa0000000600a3
:100720000200fa00000f78001027fc001e0278007b
:10073000546688000200fc000080fa0000000600f9
:100740000040da000000fe0003f0a200889fbe0017
:100750008a9fbe008c1f7800240107002b01330004
:100760006450e1004f0032006420e100520032008a
:1007700003826c0007003b000905d0000306d0008f
:10078000820f54000c065d000200390002003200a6
:1007900089017800030678008582550004003d0039
:1007a0000003fd008103fd008502ea008b85420005
:1007b000840f720002003b0060001000e08018000f
:1007c0006011b8000005eb007a28e1000a0039004a
:1007d00006007800c75ddd00f707b200878075006e
:1007e0002d003700828171000a01780061056000e8
:1007f0008180d1000080d3008502e900f9ff3b0031
:10080000060440008784480002003b006004140096
:10081000e0841c000988a300070032008a8171006f
:1008200082817100610164008904d1000884d300d1
:100830008b05e800170037000978a30013003a0081
:100840000b00e000130034008b05e90008044400ad
:1008500089844c000a4474000978a3000d003a0012
:100860000b00e000070034008b05e9000804440099
:1008700089844c0001003a000b0020000978a30095
:10088000f7ff32000001eb000200370082817100a7
:100890000a0178009a0007000cf0a70001f0a00000
:1008a000e30037006420e10002003a00838f6c000f
:1008b000e30033000801be000200be00dc00370088
:1008c000889fbe008a9fbe008c1f7800c70007006b
:1008d000ce00330003866c006450e1002e0032002d
:1008e0006420e100330032006150e1002f0032004b
:1008f0006120e1003100320085855500eb07b00032
:100900000900200008042000050037000804440006
:1009100089844c000a0031000603430087834b00a2
:100920000001530081815b00f8ff33000203be0029
:100930000800a0000804440089844c00f6ff390038
:10094000c639dd008301730001003200130020006e
:100950008904d1000884d3000998a300050032005f
:100960000800a7000300a0008904d1000884d30078
:100970008b05e8008904d1000884d3000001eb0056
:100980000281d2005e00070001f0a1000cf0a70078
:1009900001f0a000a60037006420e100a8003200aa
:1009a0000801be000200be00f7ff37006120e10031
:1009b000a30032006000b800f3ff37000000200001
:1009c00001f82700f0ff3700839f68000100e00076
:1009d00002003d0060001000e08018000300e0000d
:1009e00002003d0060011100e0811900cb0007000a
:1009f0004f00e00002003b0060001000e0801800a3
:100a0000000006000001be00630007000470a7009c
:100a100003f0a1006509b100160032000d00350099
:100a20006828e10006003500f0ff2f00f1ff2700e5
:100a30000300e00013003b00010028000000050057
:100a400000004000818048008502e900fcff3a0078
:100a500008003700f88f420002003c008000eb00e5
:100a6000000005008100d1000080d3008502e8006d
:100a7000fcff3a000300e00002003b0060001000b1
:100a8000e0801800000006000001be0042000700e0
:100a90000470a70003f0a10003f8a30013003a00bc
:100aa0006509b10010003200090035006928e10035
:100ab0000200350001002800000005000000400091
:100ac000818048008502e900fcff3a000000060032
:100ad000f88f4200050035008100d1000080d3006e
:100ae0008502e800fcff3a00000006008000eb00f1
:100af000000005004f89de00820178009700370072
:100b000081002000618055000b003d000b0020009b
:100b100061fe2f000100e1001d00340082817100a0
:100b2000610164008904d1000884d3000000e8005a
:100b3000faff3a00710020006100640003007000b9
:100b4000020060000900320061044400e0844c00af
:100b50000988a500050032008b05e8006808e1005f
:100b600002003a008904d1000884d300f20f20006b
:100b70000258e10005003d00c75ddd00f907b20045
:100b80008980750008007800000006000bf8270037
:100b90008b00780000000500c70ade00f107b200f4
:100ba000f50fb20008003200e1cf4200020032002f
:100bb0000170a00024000500810f700001003200c8
:100bc0000408050044000500810f700002003a008f
:100bd000140005008502e9000000400081c04800c3
:100be000fcff3b000170a000240005000004be00d3
:100bf000e9ff07000003be000405be000200be00be
:100c0000e5ff0700844f7500000006000200be00eb
:100c10006450e100050036006420e1000200360067
:100c20000968a30001003a000800be000160a000ae
:100c30004f0678004f05be004f04be0000000600be
:100c4000f0ff2f00f1ff2700f9ff3700889fbe005b
:100c50008a9fbe008c1f7800e4ff0700ebff330083
:100c600003866c006450e100240032006420e1003f
:100c7000270032006150e100220032006120e100d3
:100c8000210032008b854200eb07b1000134b8002f
:100c9000003ab8000804420089844a00013ab800ca
:100ca0000030b8008880400009014a000400330089
:100cb0000000400081804800020149008b05e900e6
:100cc000c909dd008301700001003200130020001b
:100cd000c814de004814dd004709de001200b2002f
:100ce000c808de000884700085ff070001f0a1003d
:100cf0000cf0a70001f0a000cdff37006120e1005b
:100d0000cfff32000801be000200be00f7ff37002f
:100d10006150e100fcff3a00c9ff37006022b800d3
:100d2000060220000000d0008180d2000482d200a0
:100d30008582d2000000a0000202520083825a0085
:100d4000030031000202420083824a000000a10039
:100d50000603e900f3ff3a0000000600881f780050
:100d6000030478000300e00007003d00600010006d
:100d7000e080180060011900e081190002003b00ca
:100d800001f02d00030037000400070008f0a70061
:100d900001f0a0004f04780000000600889fbe000c
:100da0008a9fbe00008270000402710004827100fc
:100db000260032000004be000200be006011b80030
:100dc0006b092000950220000182cf000a00390043
:100dd0000541b1000082cf00070039000541b10094
:100de0000982cf00040039000541b1000882cf001c
:100df000010039000541b1000542520012003200e5
:100e00000a003b0082817100610164008100d10011
:100e10000080d3008984d3000884d3008b05e800c8
:100e20000442e800f7ff3a000700370008044400d6
:100e300089844c0000004800818048008b05e9004f
:100e40000442e900f9ff3a002dff07004f05be00fc
:080e50004f04be000000060083
:020000040000fa
:100e580049000000454f0000460000000043000024
:040e68000000000086
:020000040000fa
:100e6c000600fa0010079800210798002e02900047
:100e7c0004024200040f780011002000c072280008
:100e8c003a0307000e0278002100200004007800cd
:100e9c00360307009e0278001e0290008500780041
:100eac00040078003103070041002000e0722800a4
:100ebc002e0307000080fa00000006000400fa0070
:100ecc00000f7800110798001100200030732800e3
:100edc00260307000e82e8002100200004007800a1
:100eec00220307001e029000840078001e00780088
:100efc001e03070041002000e07228001b030700be
:100f0c000080fa00000006000c00fa004007980070
:100f1c00510798000002eb00040f78000002eb0070
:100f2c00140798000002eb002407980066024700a3
:100f3c00040078005103070000027800e00f520013
:100f4c00540032001e027800e00f520004003a00f8
:100f5c006e4290000402fb00140798004c0037000e
:100f6c001e027800e10f52001e003a006e42900003
:100f7c000402fb004822dd009e0290000482420025
:100f8c00140798001e0290008482d1005e0290002b
:100f9c00848f52003e003400140020002407980077
:100fac00241680004a22de00614262000404a20082
:100fbc00614262000482fb00610262004a22dd0091
:100fcc0026168000f5bf2f00850263000482720094
:100fdc00241688005e029000040242001407980058
:100fec002b0037001e02780061026200e00f5200f5
:100ffc000d003a009e027800240020001100090028
:10100c008402d800000278000402e90004024200c5
:10101c00ce029000848242006e4290000402fb00db
:10102c00840a78001a0037009e02e9002400200090
:10103c00110009008402d800000278000402e900c3
:10104c0004024200ce029000848242001e03e9009a
:10105c0024002000110009000403d80000027800cd
:10106c000402e900040242004e0390000402430013
:10107c0014037800f40f2000040363006e42900008
:10108c000402fb004822dd0004027300840a78008d
:10109c001e0fe8001e027800e10f5200a3ff34007f
:1010ac001e0290000402e8009e0f52009fff3d00bc
:1010bc002e029000e00f52000700320000000000ea
:1010cc006602470004007800ec020700000278007a
:1010dc00e00f5200faff3a001e0290000482d10089
:1010ec00040078000080fa00000006000c00fa00f2
:1010fc0040079800510798000002eb00040f78009d
:10110c000002eb00140798000002eb002407980083
:10111c006602470004007800d8020700000278003d
:10112c00e00f5200200032001e027800e00f520047
:10113c0004003a006e4290000402fb001407980071
:10114c00180037001e027800e10f52000f003a0021
:10115c006e4290000402fb004822dd009e029000cb
:10116c0004824200140798009e0290005e029000d8
:10117c00848f52000b0034001400200024079800c8
:10118c005e02900014079800060037001e027800db
:10119c000482e900ce029000848242006e429000ec
:1011ac00844a78001e0fe8001e027800e10f5200fe
:1011bc00d7ff34001e0290000402e8009e0f52007c
:1011cc00d3ff3d002e029000e00f520007003200ca
:1011dc00000000006602470004007800a702070028
:1011ec0000027800e00f5200faff3a001e02900055
:1011fc00040078000080fa00000006000000fa00ed
:10120c000002eb0084088800840880000440a000e1
:10121c000450a000840888000002eb003408880009
:10122c00046821006408880084c0a9008cc0a80050
:10123c0011e1a8000080fa00000006003600f8005a
:10124c00809fbe00829fbe00849fbe00869fbe0012
:10125c000000fa00c19720008097200007010700ca
:10126c00c1972000809720006400070084c0a9006b
:10127c000002eb00340888000080fa004f03be0027
:10128c004f02be004f01be004f00be003600f900f9
:10129c00004006000200fa000002eb00040f780088
:1012ac001900370014c0b300044078007ee8b70082
:1012bc001e027800040242008402780004b8200068
:1012cc00048342001e02780004024200840278006b
:1012dc0004a82000848242001e027800040242000e
:1012ec0084037800049820000482430006017800ef
:1012fc008500780004007800720207001e02780056
:10130c000402e800040f78009e027800f407200025
:10131c00848f5200e3ff34000002eb00040f7800ce
:10132c00110020000e007800cdfe070001082000ff
:10133c0000982000cafe07000108200000a8200029
:10134c00c7fe07000108200000b82000c4fe0700fb
:10135c00000000001102070000027800e00f5200ac
:10136c00fcff3a000080fa00000006000000fa00c2
:10137c000002eb0024088800240880000440a1002f
:10138c000450a000240888000002eb000408880028
:10139c00342b2000140888008460a9008c60a800fd
:1013ac0005e1a8000080fa0000000600801f78000c
:1013bc00841f78000000fa008460a9000042eb0052
:1013cc00044078007ee8b7000080fa004f027800f5
:1013dc004f007800004006000000fa0087ff07006d
:1013ec003f0107005dfc0700320207004c020700ba
:1013fc008001070081000700feff37000400fa009f
:10140c00881f7800000f7800110798001e82e800f2
:10141c00140278000400780016000700000278001f
:10142c009e029000840a78001e0290000484e8005a
:10143c001e02780014027800040078003b000700bc
:10144c0000027800040c78001e0290000482e80070
:10145c00940278001e029000140278008500780037
:10146c00040078003b0007004f0478000080fa006d
:10147c00000006000600fa00889fbe0020079800b6
:10148c00d4478000cfa2de00048fbe001e00be0039
:10149c0095fd07000004be002e029000cfa2de00d6
:1014ac000400be0090fd07000002be00a2992900b6
:1014bc0093e123000400be00e1fd07000002be0022
:1014cc000401be000800be009cfc07000002be0028
:1014dc000400be0048fd07000002be00048fbe00e1
:1014ec00e4ff2700050020001e03be00840f5300fc
:1014fc00858f5b0008003c0014002800f5ff2f00ce
:10150c001e03be00840f5300858f5b000200350064
:10151c001e027800d4478800d4478000040078006d
:10152c004f04be000080fa00000006000200fa0022
:10153c00000f78001e0278006322b90004027800c4
:10154c00c4478800c4478000040078000080fa007b
:10155c00000006000800fa002007980031079800e8
:10156c00ae0290003e029000048f4200ae0290004a
:10157c003e029000048252001407980094c12f0080
:10158c009e027800848f520003003d0084c12f001e
:10159c00040f780006003700743e20009e0278008d
:1015ac00848f520002003400843e2000040f780027
:1015bc009e02900094c12f00848f520003003d00c6
:1015cc0084c12f0014079800060037009e0290007b
:1015dc00743e2000848f520002003400843e2000b0
:1015ec00140798001e007800e0fb07001e00900016
:1015fc000afc07000080fa00000006000000fa0058
:10160c00e447800004024200840278000490200029
:10161c0004834200e4478000040242008402780004
:10162c000488200084824200e447800004024200c7
:10163c0084037800048020000482430006017800b3
:10164c0085007800040078009e010700e5478000c3
:10165c00a4032000848f520004003c00e447800067
:10166c000402e800e4478800020037000002eb00a7
:10167c00e44788000080fa00000006000600fa002b
:10168c00881f780010079800210798009400070025
:10169c001e0290000482e800140f7800c1032000a1
:1016ac00008020003f01070000027800a5812f0078
:1016bc00850242001e029000050a78001e0290006e
:1016cc000484e800c10320000088200035010700d5
:1016dc0000027800c57d2f0005024200040c780042
:1016ec001e02900064044200c10320000090200000
:1016fc002c0107000002780005802f000502420033
:10170c00040c78001e0290000482e8001402780099
:10171c009e02520004082000848f520007003c00f7
:10172c001e0290000482e800140278009e0252000f
:10173c0004f82f00848f520001003d00c5c2a800a0
:10174c004f0478000080fa00000006000800fa0040
:10175c0020079800310798008e0078003e0090001a
:10176c00100007002e029000940278001e029000d8
:10177c00848242002e029000050a78002e0290000e
:10178c000482e800ae0290008582e8001503780020
:10179c009e02780085024300050a78000080fa005a
:1017ac00000006000400fa00000f780011079800f2
:1017bc000002eb00040078000080fa000000060034
:020000040000fa
:1017cc007809000008030000000000007e080000fb
:1017dc00020000000200000000000000f8080000f9
:1017ec000400000000000000c027000020000000e2
:1017fc000200000000400000205515000010cc0035
:10180c000cab0a00250900000800000000000000d5
:10181c0000000000000000000000000000040000b8
:10182c0000080000780000000000000080080000a4
:10183c0078000000000000000009000078000000a3
:10184c0000000000fc080000020000000200000084
:10185c0000000000800c00004400000002000000aa
:10186c00000000000000000000000000000000006c
:10187c00000000000000000000000000000000005c
:10188c00000000000000000000000000000000004c
:10189c00000000000000000000000000000000003c
:1018ac00000000000000000000000000000000002c
:1018bc00000000000000000000000000780800009c
:1018cc000600000002000000000000000000000004
:1018dc00c40c00000c000000000000000000000020
:020000040000fa
:1018ec000000fa00c4c2a900c4e2a900c522a900e4
:1018fc00c582a900c542a900c5a2a900c5c2a900fc
:10190c00c5e2a900c0c2a900c0e2a900c122a90079
:10191c00c182a900c142a900c1a2a900c1c2a900eb
:10192c00c1e2a900d022a900cc22a900d042a90072
:10193c00cc42a900e2e2a900e302a900e802a90056
:10194c00e822a900dee2a900df02a900e402a90056
:10195c00e422a900e202a900de02a900d602a90035
:10196c00d622a900d642a900d662a900d682a90027
:10197c00d6a2a900d6c2a900d6e2a900d202a9001b
:10198c00d222a900d242a900d262a900d282a90017
:10199c00d2a2a900d2c2a900d2e2a900d1a2a90068
:1019ac00cda2a900e842a900e862a900e442a9007e
:1019bc00e462a900de22a800dec2a800e4c2a800ee
:1019cc00e4e2a800e502a800e522a800d302a800e2
:1019dc00d322a800d342a800d362a800d382a800c7
:1019ec00d3a2a800d3c2a800d3e2a8000080fa00ba
:1019fc00000006000000fa000002eb00241588002d
:101a0c002415800014158800141580000415880016
:101a1c00a802a800a822a800a842a900a862a900b0
:101a2c00a882a900a8a2a900a8c2a900a8e2a9009e
:101a3c00a902a900a922a900a942a900a962a9008a
:101a4c00a982a900a9a2a900a9c2a900a9e2a9007a
:101a5c00240120002415880074002000341588000f
:101a6c00a1e2a8000080fa00000006000400fa00c1
:101a7c00100798001e029000ef0f52000200360073
:101a8c000002eb00140037001e0290003415880091
:101a9c00a022a8000002eb00040f78000100370020
:101aac001e0fe800740220009e027800848f520002
:101abc00fbff34008560a900a022a90000000000f3
:101acc00250480000480200004826200e00f520094
:101adc00fbff320004148000040078000080fa0040
:101aec00000006008540a900809fbe00821f780080
:101afc007c08e200150032007808e2001600320083
:101b0c007a08e20014003200c14380004200200039
:101b1c000f22af00feff3700d04380000000e00032
:101b2c00070032000000e9007aa8b70031407800c5
:101b3c0010e2b7000201e900f5ff3a00020037009d
:101b4c007828ef0001003700c14388004f0178006e
:101b5c004f00be000040060000002000e04388005b
:101b6c004f0178004f00be00004006007c08e200e8
:101b7c00feff3a008d40a9008100e900d1438800a6
:101b8c00b040780081108800c0438800110020000c
:101b9c00e14388008d40a80000000600e04380006f
:101bac00000006000c00fa0040079800510798004e
:101bbc006022b80014079800250798000002eb007b
:101bcc00040f78000d0037001e027800040242005a
:101bdc00ce0290000482420014027800cfa2de00f4
:101bec001e039000ae0390000602420087824a005a
:101bfc0014079800250798001e0fe8005e0290005d
:101c0c009e027800848f5200efff35005e02900038
:101c1c00cfa2de000401be001e009000ae009000ba
:101c2c0066fb07000002be00340798003e029000dd
:101c3c00040078000080fa0000000600809fbe00bf
:101c4c008520a90000668000f003b20001c82000c6
:101c5c00810040000000eb0012c2bf0080487800f9
:101c6c00c02cec004f00be00004006000066800057
:101c7c001166800001005000000006000166800023
:101c8c00126680000208e10008003200f203b20084
:101c9c0001c8200002814000924078000148780081
:101cac00c22cec0010002000000006000000eb002d
:101cbc00000006000000fa004eff07000080fa004a
:101ccc00000006000600fa00000f780011079800cb
:101cdc002207980005e1a9005000200063ff0700cf
:101cec00000278009e027800840a780060002000d0
:101cfc005eff0700000278009e029000840a7800c4
:101d0c007000200059ff070000027800ae0290001e
:101d1c00840a780005e1a8000080fa0000000600a3
:101d2c000c22ef000e22ef000ee2a9000ec2a90059
:101d3c008520a9008d20a8000de2a80070002000cd
:101d4c00a01088008540a9008d40a80081e0a90062
:101d5c00c0048000f1002f000080600001552000bd
:101d6c0000804000c00488000fe2a8000f42a800c9
:0c1d7c00c02cef00c22cef00000006009d
:020000040000fa
:0200000401f009
:04000000e6bf000057
:020000040000fa
:0200000401f009
:04000400ff7f00007a
:020000040000fa
:0200000401f009
:040008007fff000076
:020000040000fa
:0200000401f009
:04001400ffff0000ea
:00000001FF
