:020000040000fa
:080000000001040000000000f3
:020000040000fa
:10000800a0030000a0030000a0030000a00300005c
:10001800a0030000a0030000a0030000a00300004c
:10002800a0030000a0030000a0030000480c00008b
:10003800a0030000a0030000900b0000a003000034
:10004800a0030000d80f0000780f0000a0030000f4
:10005800a0030000a0030000a0030000a00300000c
:10006800a0030000a0030000a0030000a0030000fc
:10007800a00300002402000094010000a003000077
:10008800a0030000a0030000a0030000a0030000dc
:10009800a0030000a0030000a0030000a0030000cc
:1000a800a0030000a0030000a0030000a0030000bc
:1000b800a0030000a0030000a0030000a0030000ac
:1000c800a0030000a0030000a0030000a00300009c
:1000d800a0030000a0030000a0030000a00300008c
:1000e800a0030000a0030000a0030000a00300007c
:0800f800a0030000a0030000ba
:020000040000fa
:10010800a0030000a0030000a0030000a00300005b
:10011800a0030000a0030000a0030000a00300004b
:10012800a0030000a0030000a0030000480c00008a
:10013800a0030000a0030000900b0000a003000033
:10014800a0030000d80f0000780f0000a0030000f3
:10015800a0030000a0030000a0030000a00300000b
:10016800a0030000a0030000a0030000a0030000fb
:10017800a00300002402000094010000a003000076
:10018800a0030000a0030000a0030000a0030000db
:10019800a0030000a0030000a0030000a0030000cb
:1001a800a0030000a0030000a0030000a0030000bb
:1001b800a0030000a0030000a0030000a0030000ab
:1001c800a0030000a0030000a0030000a00300009b
:1001d800a0030000a0030000a0030000a00300008b
:1001e800a0030000a0030000a0030000a00300007b
:0801f800a0030000a0030000b9
:020000040000fa
:100200008fb920000e7b22000e0188000000000044
:1002100000012000200288000c00070060de2000a2
:100220000100200011000700000020000000e00095
:100230000200320000000200000000005e0c02001c
:10024000000000000040da000000fe004440a90069
:10025000a00020000000e0000300320000002000a9
:10026000a00188004440a800000006009101880019
:10027000800078000000eb0015003700e2804000ad
:1002800032a0b4009101ba00e280400032a0b40074
:100290009102ba00e280400032a0b4000002eb00fc
:1002a000472bde00f507b200602ce10004003a00a5
:1002b0000059eb008301e900fdff3e000400370018
:1002c0006128e100010032000082eb000400070019
:1002d0001101ba000200e000e8ff3a000000060049
:1002e0003159ba008301e9000c0032002159ba00eb
:1002f0008301e900080032000400e00003003a0036
:10030000e280400032a0b400f5ff370011d9ba00f6
:100310008301e900faff3a008100e800e180400033
:1003200032a0b4000000060000a0fe00849fbe00c2
:10033000869fbe003400f80004002000a40188005d
:100340000000fa0086c0a90064408000e00f52005f
:100350000c003400844080000402e80084408800df
:10036000b44080000402e900b4408800b44080003a
:10037000e00f52000e003d0034002000b440880021
:100380000b003700844080000402e90084408800ac
:10039000b44080000402e800b4408800b44080000b
:1003a000e30f5200020034000002eb00b44088006a
:1003b000b4408000cfa2de003600200007002000fd
:1003c000860f5200878f5a0019003e00046001001a
:1003d00003003700070037000b0037000f0037001d
:1003e000d602a900d622a800d642a900d662a8004b
:1003f0000f003700d602a900d622a800d642a800d6
:10040000d662a9000a003700d602a800d622a900a9
:10041000d642a800d662a90005003700d602a8007f
:10042000d622a900d642a900d662a800000000008a
:100430000080fa003400f9004f03be004f02be00f6
:100440000080fe000040060000a0fe00849fbe0069
:10045000869fbe003400f80004002000a40188003c
:100460000000fa0086a0a90074408000e00f52004e
:100470000c003d00944080000402e9009440880094
:10048000a44080000402e900a4408800a440800049
:10049000e00f52000e003d0034002000a440880010
:1004a0000b003700944080000402e800944088006c
:1004b000a44080000402e800a4408800a44080001a
:1004c000e30f5200020034000002eb00a440880059
:1004d000a4408000cfa2de003600200007002000ec
:1004e000860f5200878f5a0019003e0004600100f9
:1004f00003003700070037000b0037000f003700fc
:10050000d682a900d6a2a800d6c2a900d6e2a80029
:100510000f003700d682a900d6a2a800d6c2a80034
:10052000d6e2a9000a003700d682a800d6a2a90008
:10053000d6c2a800d6e2a90005003700d682a800de
:10054000d6a2a900d6c2a900d6e2a80000000000e9
:100550000080fa003400f9004f03be004f02be00d5
:100560000080fe00004006000000fa00df050700e2
:100570000080fa00000006000200fa00000f780078
:100580001e027800e00f520006003a0021e1a900a7
:10059000d602a900d622a900d642a900d662a90097
:1005a0001f00370021e1a9001e0278006440880086
:1005b0000002eb0004098800040980000440a00048
:1005c0000450a000040988000002eb00c408880061
:1005d0001e02780004f0a7000402ea00cfa2de00a9
:1005e0000400be00b50007000002be000401be000a
:1005f0000000200011762400530007000002be0016
:100600000400be00920007000002be000402780051
:10061000e408880086c0a9008ec0a80021e1a800d7
:100620000080fa00000006000200fa00000f7800c7
:100630001e027800e00f520006003a001fe1a900f8
:10064000d682a900d6a2a900d6c2a900d6e2a900e6
:100650001f0037001fe1a9001e02780074408800c7
:100660000002eb00f4088800f40880000440a000b9
:100670000450a000f40888000002eb00a4088800e1
:100680001e02780004f0a7000402ea00cfa2de00f8
:100690000400be00890007000002be000401be0085
:1006a0000000200011762400270007000002be0091
:1006b0000400be00660007000002be0004027800cd
:1006c000d408880086a0a9008ea0a8001fe1a80079
:1006d0000080fa00000006000000fa00844080005c
:1006e000040078000080fa00000006000200fa0012
:1006f000000f78001027fc001e027800844088005c
:100700000200fc000080fa00000006000000fa0071
:1007100094408000040078000080fa000000060089
:100720000200fa00000f78001027fc001e0278007b
:10073000944088000200fc000080fa0000000600df
:100740000040da000000fe00889fbe008a9fbe00c5
:100750008c1f7800970007009e00330003866c0012
:100760006450e1002e0032006420e10033003200ca
:100770006150e1002f0032006120e10031003200c1
:1007800085855500eb07b000090020000804200013
:10079000050037000804440089844c000a00310039
:1007a0000603430087834b000001530081815b00f7
:1007b000f8ff33000203be000800a0000804440054
:1007c00089844c00f6ff3900c639dd0083017300cf
:1007d00001003200130020008904d1000884d300f6
:1007e0000998a300050032000800a7000300a0003c
:1007f0008904d1000884d3008b05e8008904d10066
:100800000884d3000001eb000281d2002e00070013
:1008100001f0a1000cf0a70001f0a0007600370065
:100820006420e100780032000801be000200be0032
:10083000f7ff37006120e100730032006000b8006c
:10084000f3ff37000000200001f82700f0ff370019
:100850000001be00420007000470a70003f0a100e1
:1008600003f8a30013003a006509b100100032003c
:10087000090035006928e100020035000100280068
:100880000000050000004000818048008502e9006a
:10089000fcff3a0000000600f88f4200050035001a
:1008a0008100d1000080d3008502e800fcff3a00ff
:1008b000000006008000eb00000005004f89de000c
:1008c00082017800530037008100200061805500cc
:1008d0000b003d000b00200061fe2f000100e10035
:1008e0001d00340082817100610164008904d1001f
:1008f0000884d3000000e800faff3a0071002000ed
:100900006100640003007000020060000900320012
:1009100061044400e0844c000988a5000500320011
:100920008b05e8006808e10002003a008904d10064
:100930000884d300f20f20000258e10005003d00ba
:10094000c75ddd00f907b2008980750008007800f6
:10095000000006000bf827008b007800000005005f
:10096000c70ade00f107b200f50fb200080032003e
:10097000e1cf4200020032000170a0002400050017
:10098000810f7000010032000408050044000500da
:10099000810f700002003a00140005008502e90092
:1009a0000000400081c04800fcff3b000170a00037
:1009b000240005000004be00e9ff07000003be009c
:1009c0000405be000200be00e5ff0700844f75006d
:1009d000000006000200be006450e1000500360081
:1009e0006420e100020036000968a30001003a001b
:1009f0000800be000160a0004f0678004f05be0051
:100a00004f04be0000000600f0ff2f00f1ff27009a
:100a1000f9ff3700881f7800030478000300e00026
:100a200007003d0060001000e08018006001190020
:100a3000e081190002003b0001f02d0003003700a7
:100a40000400070008f0a70001f0a0004f047800a0
:100a500000000600889fbe008a9fbe0000827000d2
:100a60000402710004827100260032000004be00fe
:100a70000200be006011b8006b0920009502200042
:100a80000182cf000a0039000541b1000082cf0089
:100a9000070039000541b1000982cf000400390088
:100aa0000541b1000882cf00010039000541b100c5
:100ab00005425200120032000a003b0082817100a0
:100ac000610164008100d1000080d3008984d300db
:100ad0000884d3008b05e8000442e800f7ff3a00e1
:100ae000070037000804440089844c0000004800d7
:100af000818048008b05e9000442e900f9ff3a00d3
:100b000071ff07004f05be004f04be000000060045
:020000040000fa
:100b100049000000454f000046000000004300006f
:040b200000000000d1
:020000040000fa
:100b24000400fa00000f7800110798001e027800f4
:100b3400050020007600200007002000860f5200e8
:100b4400878f5a00ef003e00046001000700370061
:100b5400230037003f0037005b0037007700370081
:100b640093003700af003700cb0037001e0290001f
:100b7400e10f52000e003600241680004622de00eb
:100b8400614262000404a200614262000482fb002c
:100b9400610262004622dd0026168000f5fb2f006c
:100ba40085026300048272002416880097013700ce
:100bb4001e02900004427800614262000482fb003d
:100bc400610262004622dd0026168000f5fb2f003c
:100bd4008502630004827200241688008b013700aa
:100be4001e029000e10f52000e0036002416800011
:100bf4004722de00614262000404a20061426200f6
:100c04000482fb00610262004722dd002616800098
:100c1400f5f72f0085026300048272002416880011
:100c24007a0137001e02900004427800614262009b
:100c34000482fb00610262004722dd002616800068
:100c4400f5f72f00850263000482720024168800e1
:100c54006e0137001e029000e10f52000e003600b4
:100c6400241680004922de00614262000404a200ce
:100c7400614262000482fb00610262004922dd00dd
:100c840026168000f5df2f008502630004827200bf
:100c9400241688005d0137001e029000044278008b
:100ca400614262000482fb00610262004922dd00ad
:100cb40026168000f5df2f0085026300048272008f
:100cc40024168800510137001e029000e10f5200e3
:100cd4000e003600241680004c22de0061426200c1
:100ce4000404a200614262000482fb00610262000b
:100cf4004c22dd0026168000f5ff2e0085026300dd
:100d04000482720024168800400137001e029000fd
:100d140004427800614262000482fb0061026200c6
:100d24004c22dd0026168000f5ff2e0085026300ac
:100d34000482720024168800340137001e029000d9
:100d4400e10f52000e003600241680004a22de0015
:100d5400614262000404a200614262000482fb005a
:100d6400610262004a22dd0026168000f5bf2f00d2
:100d74008502630004827200241688002301370070
:100d84001e02900004427800614262000482fb006b
:100d9400610262004a22dd0026168000f5bf2f00a2
:100da400850263000482720024168800170137004c
:100db4001e029000e10f52000e003600241680003f
:100dc4004d22de00614262000404a200614262001e
:100dd4000482fb00610262004d22dd0026168000c1
:100de400f5ff2d008502630004827200241688003a
:100df400060137001e02900004427800614262003e
:100e04000482fb00610262004d22dd002616800090
:100e1400f5ff2d0085026300048272002416880009
:100e2400fa0037001e029000e10f52000e00360057
:100e3400241680004e22de00614262000404a200f7
:100e4400614262000482fb00610262004e22dd0006
:100e540026168000f5ff2b008502630004827200d1
:100e640024168800e90037001e029000044278002e
:100e7400614262000482fb00610262004e22dd00d6
:100e840026168000f5ff2b008502630004827200a1
:100e940024168800dd0037001e029000e10f520086
:100ea4000d003600241680004f22de000442780034
:100eb4000404a200614262000482fb004f22dd00b0
:100ec40026168000f5ff2700850263000482720065
:100ed40024168800cd0037001e02900004427800da
:100ee400614262000482fb004f22dd00261680006e
:100ef400f5ff27008502630004827200241688002f
:100f0400c20037001e029000e10f52006800360054
:100f1400241680004622de00614262000404a2001e
:100f2400614262000482fb00610262004622dd002d
:100f340026168000f5fb2f008502630004827200f0
:100f440024168800241680004722de0061426200d5
:100f54000404a200614262000482fb006102620098
:100f64004722dd0026168000f5f72f008502630076
:100f74000482720024168800241680004922de00b0
:100f8400614262000404a200614262000482fb0028
:100f9400610262004922dd0026168000f5df2f0081
:100fa40085026300048272002416880024168000df
:100fb4004c22de00614262000404a200614262002d
:100fc4000482fb00610262004c22dd0026168000d0
:100fd400f5ff2e0085026300048272002416880047
:100fe400241680004a22de00614262000404a2004a
:100ff400614262000482fb00610262004a22dd0059
:1010040026168000f5bf2f0085026300048272005b
:1010140024168800241680004d22de0061426200fe
:101024000404a200614262000482fb0061026200c7
:101034004d22dd0026168000f5ff2d008502630099
:101044000482720024168800241680004e22de00da
:10105400614262000404a200614262000482fb0057
:10106400610262004e22dd0026168000f5ff2b008f
:10107400850263000482720024168800241680000e
:101084004f22de00044278000404a20061426200a0
:101094000482fb004f22dd0026168000f5ff2700a6
:1010a400850263000482720024168800570037000a
:1010b4001e02900004427800614262000482fb0038
:1010c4004f22dd0026168000f5ff2700850263000d
:1010d4000482720024168800241680004f22de0049
:1010e400044278000482fb00610262004e22dd00ab
:1010f40026168000f5ff2b0085026300048272002f
:1011040024168800241680004e22de00614262000c
:101114000482fb00610262004d22dd00261680007d
:10112400f5ff2d00850263000482720024168800f6
:10113400241680004d22de00614262000482fb001e
:10114400610262004a22dd0026168000f5bf2f00ee
:10115400850263000482720024168800241680002d
:101164004a22de00614262000482fb0061026200e6
:101174004c22dd0026168000f5ff2e008502630058
:101184000482720024168800241680004c22de009b
:10119400614262000482fb00610262004922dd00b8
:1011a40026168000f5df2f0085026300048272009a
:1011b40024168800241680004922de006142620061
:1011c4000482fb00610262004722dd0026168000d3
:1011d400f5f72f008502630004827200241688004c
:1011e400241680004722de00614262000482fb0074
:1011f400610262004622dd0026168000f5fb2f0006
:101204008502630004827200241688000080fa00bc
:10121400000006000200fa00000f78001e027800a9
:10122400e10f52000e003600841680004222de00d8
:10123400614262000404a200614262000482fb0075
:10124400610262004222dd0086168000b5ff2f0095
:101254008502630004827200841688000b00370044
:101264001e02780004427800614262000482fb009e
:10127400610262004222dd0086168000b5ff2f0065
:101284008502630004827200841688000080fa00dc
:10129400000006000200fa00000f78001e02780029
:1012a400e10f52000e003600841680000402d100c3
:1012b400614262000404a200614262000482fb00f5
:1012c400610262000402420086168000d5ff2f00ee
:1012d4008502630004827200841688000b003700c4
:1012e4001e02780004427800614262000482fb001e
:1012f400610262000402420086168000d5ff2f00be
:101304008502630004827200841688000080fa005b
:10131400000006000000fa00c4c2a900c4e2a9004b
:10132400c522a900c582a900c542a900c5a2a90079
:10133400c5c2a900c5e2a9000080fa0000000600a9
:101344000600fa0010079800210798002e0290006a
:1013540004024200040f7800110020008058280085
:10136400040307000e027800210020000400780026
:10137400000307009e0278001e029000850078009a
:1013840004007800fb02070041002000a058280058
:10139400f80207000080fa00000006000400fa00ca
:1013a400000f78001107980011002000f058280061
:1013b400f00207000e82e8002100200004007800fb
:1013c400ec0207001e029000840078001e007800e2
:1013d400e802070041002000a0582800e5020700a9
:1013e4000080fa00000006000c00fa004007980094
:1013f400510798000002eb00040f78000002eb0094
:10140400140798000002eb002407980066024700c6
:1014140004007800f502070000027800e00f520093
:10142400540032001e027800e00f520004003a001b
:101434006e4290000402fb00140798004c00370031
:101444001e027800e10f52001e003a006e42900026
:101454000402fb004822dd009e0290000482420048
:10146400140798001e0290008482d1005e0290004e
:10147400848f52003e00340014002000240798009a
:10148400241680004a22de00614262000404a200a5
:10149400614262000482fb00610262004a22dd00b4
:1014a40026168000f5bf2f008502630004827200b7
:1014b400241688005e02900004024200140798007b
:1014c4002b0037001e02780061026200e00f520018
:1014d4000d003a009e02780024002000110009004b
:1014e4008402d800000278000402e90004024200e9
:1014f400ce029000848242006e4290000402fb00ff
:10150400840a78001a0037009e02e90024002000b3
:10151400110009008402d800000278000402e900e6
:1015240004024200ce029000848242001e03e900bd
:1015340024002000110009000403d80000027800f0
:101544000402e900040242004e0390000402430036
:1015540014037800f40f2000040363006e4290002b
:101564000402fb004822dd0004027300840a7800b0
:101574001e0fe8001e027800e10f5200a3ff3400a2
:101584001e0290000402e8009e0f52009fff3d00df
:101594002e029000e00f520007003200000000000d
:1015a40066024700040078009002070000027800f9
:1015b400e00f5200faff3a001e0290000482d100ac
:1015c400040078000080fa00000006000c00fa0015
:1015d40040079800510798000002eb00040f7800c0
:1015e4000002eb00140798000002eb0024079800a7
:1015f40066024700040078007c02070000027800bd
:10160400e00f5200200032001e027800e00f52006a
:1016140004003a006e4290000402fb001407980094
:10162400180037001e027800e10f52000f003a0044
:101634006e4290000402fb004822dd009e029000ee
:1016440004824200140798009e0290005e029000fb
:10165400848f52000b0034001400200024079800eb
:101664005e02900014079800060037001e027800fe
:101674000482e900ce029000848242006e4290000f
:10168400844a78001e0fe8001e027800e10f520021
:10169400d7ff34001e0290000402e8009e0f52009f
:1016a400d3ff3d002e029000e00f520007003200ed
:1016b4000000000066024700040078004b020700a7
:1016c40000027800e00f5200faff3a001e02900078
:1016d400040078000080fa00000006000000fa0010
:1016e4000002eb0084088800840880000440a00005
:1016f4000450a000840888000002eb00340888002d
:10170400046821006408880084c0a9008cc0a90072
:1017140011e1a8000080fa00000006003600f8007d
:10172400809fbe00829fbe00849fbe00869fbe0035
:101734000000fa0001852000c0842000e4000700b6
:1017440001852000c0842000650007000002eb0032
:101754003408880084c0a9000080fa004f03be004a
:101764004f02be004f01be004f00be003600f9001c
:10177400004006000200fa000002eb00040f7800ab
:101784001900370014c0b300044078001ee8b70005
:101794001e027800040242008402780044a520005e
:1017a400048342001e02780004024200840278008e
:1017b40044952000848242001e0278000402420004
:1017c40084037800448520000482430006017800e5
:1017d4008500780004007800160207001e027800d5
:1017e4000402e800040f78009e027800f407200049
:1017f400848f5200e3ff34000002eb00040f7800f2
:10180400110020000e007800cdfe07000108200022
:1018140040852000cafe07000108200040952000f2
:10182400c7fe07000108200040a52000c4fe0700f1
:1018340000000000db01070000027800e00f520006
:10184400fcff3a000080fa00000006000000fa00e5
:101854000002eb0024088800240880000440a10052
:101864000450a000240888000002eb00040888004b
:10187400342b2000140888008460a9008c60a80020
:1018840005e1a8000080fa0000000600801f78002f
:10189400841f78000000fa008460a9000042eb0075
:1018a400044078001ee8b7000080fa004f02780078
:1018b4004f007800004006000000fa0087ff070090
:1018c400e2ff07000801070026fb0700d501070017
:1018d400ef01070049010700a6ff0700feff3700dc
:1018e4000400fa00881f7800000f780011079800a0
:1018f4001e82e80014027800040078001600070035
:10190400000278009e029000840a78001e02900073
:101914000484e8001e0278001402780004007800b1
:101924001600070000027800040c78001e029000e4
:101934000482e800940278001e02900014027800e9
:101944008500780004007800140007004f04780034
:101954000080fa00000006000200fa00000f780080
:10196400644180001e02420064418800644180009a
:10197400040078000080fa00000006000400fa0069
:10198400100798001e029000040f78001e027800d1
:10199400040078000080fa00000006000800fa0045
:1019a4002007980031079800ae0290003e02900094
:1019b400048f4200ae0290003e0290000482520066
:1019c4001407980084c12f009e027800848f52006f
:1019d40002003d0084c12f00040f7800843e2000e3
:1019e4009e027800848f520002003400843e20005e
:1019f400040f78009e02900084c12f00848f52004f
:101a040002003d0084c12f00140798009e0290003c
:101a1400843e2000848f520002003400843e200063
:101a240014079800ae0290003e0290000482420027
:101a340004007800cffa0700ae0290003e02900046
:101a44000482520004007800f6fa07000080fa00cd
:101a5400000006000000fa00744180000402420005
:101a640084027800048020000483420074418000d2
:101a7400040242008402780004822000848242002e
:101a8400744180000402420084037800048420002e
:101a94000482430006017800850078000400780081
:101aa4006401070074418000e50f520004003c000b
:101ab400744180000402e800744188000200370089
:101ac4000002eb00744188000080fa000000060068
:101ad4000400fa00000f7800110798007441800098
:101ae40084024200048420000482420094027800ac
:101af40004802f00848242001e027800050a7800c8
:101b04009e82e800744180000403420004822000a5
:101b1400040243001403780004802f0004024300ed
:101b2400840a78001e027800e402420074418000b6
:101b340004034200048020000402430014037800dc
:101b440004802f0004024300840a78000080fa0015
:101b5400000006000800fa002007980031079800ea
:101b64008e0078003e009000100007002e029000c6
:101b7400940278001e029000848242002e0290009b
:101b8400050a78002e0290000482e800ae0290005c
:101b94008582e800150378009e02780085024300e0
:101ba400050a78000080fa00000006000400fa002c
:101bb400000f7800110798000002eb000400780081
:081bc4000080fa000000060099
:020000040000fa
:101bcc004c08000008030000000000001e08000084
:101bdc000200000002000000000000002c080000c1
:101bec000200000000000000c027000020000000e0
:101bfc000200000000400000205515000010cc0031
:101c0c000cab0a00250900000800000000000000d1
:101c1c0000000000000000000000000000040000b4
:101c2c00400800000c00000000000000200800002c
:101c3c000c00000000000000000800000c00000078
:101c4c00000000002e08000002000000020000004e
:101c5c00000000000c0800000c0000000000000058
:101c6c001808000006000000020000000000000040
:101c7c0000000000540b00004400000002000000b3
:101c8c000000000000000000000000000000000048
:101c9c000000000000000000000000000000000038
:101cac000000000000000000000000000000000028
:101cbc000000000000000000000000000000000018
:101ccc000000000000000000000000000000000008
:101cdc0000000000000000000000000000000000f8
:020000040000fa
:101cec000000fa00c4c2a900c4e2a900c522a900e0
:101cfc00c582a900c542a900c5a2a900c5c2a900f8
:101d0c00c5e2a900c0c2a900c0e2a900c122a90075
:101d1c00c182a900c142a900c1a2a900c1c2a900e7
:101d2c00c1e2a900d022a900cc22a900d042a9006e
:101d3c00cc42a900e2e2a900e302a900e802a90052
:101d4c00e822a900dee2a900df02a900e402a90052
:101d5c00e422a900e202a900de02a900d602a90031
:101d6c00d622a900d642a900d662a900d682a90023
:101d7c00d6a2a900d6c2a900d6e2a900d202a90017
:101d8c00d222a900d242a900d262a900d282a90013
:101d9c00d2a2a900d2c2a900d2e2a900d1a2a90064
:101dac00cda2a900e842a900e862a900e442a9007a
:101dbc00e462a900de22a800dec2a800e4c2a800ea
:101dcc00e4e2a800e502a800e522a800d302a800de
:101ddc00d322a800d342a800d362a800d382a800c3
:101dec00d3a2a800d3c2a800d3e2a8000080fa00b6
:101dfc00000006000000fa000002eb002415880029
:101e0c002415800014158800141580000415880012
:101e1c00a802a800a822a800a842a900a862a900ac
:101e2c00a882a900a8a2a900a8c2a900a8e2a9009a
:101e3c00a902a900a922a900a942a900a962a90086
:101e4c00a982a900a9a2a900a9c2a900a9e2a90076
:101e5c00240120002415880074002000341588000b
:101e6c00a1e2a8000080fa00000006000400fa00bd
:101e7c00100798001e029000ef0f5200020036006f
:101e8c000002eb00140037001e029000341588008d
:101e9c00a022a8000002eb00040f7800010037001c
:101eac001e0fe800740220009e027800848f5200fe
:101ebc00fbff34008560a900a022a90000000000ef
:101ecc00250480000480200004826200e00f520090
:101edc00fbff320004148000040078000080fa003c
:101eec00000006008540a900809fbe00821f78007c
:101efc001c08e200150032001808e200160032003f
:101f0c001a08e20014003200c14080004200200098
:101f1c000f22af00feff3700d04080000000e00031
:101f2c00070032000000e9001aa8b7003140780021
:101f3c0010e2b7000201e900f5ff3a000200370099
:101f4c001828ef0001003700c14088004f017800cd
:101f5c004f00be000040060000002000e04088005a
:101f6c004f0178004f00be00004006001c08e20044
:101f7c00feff3a008d40a9008100e900d1408800a5
:101f8c00b040780081108800c0408800110020000b
:101f9c00e14088008d40a80000000600e040800071
:101fac0000000600809fbe008520a900a05c800078
:101fbc00f003b20041b52000810040000000eb00ae
:101fcc0012c2bf0080487800942bec004f00be007a
:101fdc0000400600a05c8000b15c80000100500055
:101fec0000000600a15c8000b25c80000208e100e9
:101ffc0008003200f203b20041b52000028140001b
:10200c009240780001487800962bec0010002000dc
:10201c00000006000000eb00000006000000fa00c3
:10202c0074ff07000080fa00000006000600fa00aa
:10203c00000f7800110798002207980005e1a9000d
:10204c005000200089ff0700000278009e027800f3
:10205c00840a78006000200084ff070000027800ea
:10206c009e029000840a7800700020007fff070019
:10207c0000027800ae029000840a780005e1a80006
:10208c000080fa00000006000c22ef000e22ef0088
:10209c000ee2a9000ec2a9008520a9008d20a8007f
:1020ac000de2a80070002000a01088008540a90057
:1020bc008d40a80081e0a900c0048000f1002f0031
:1020cc00008060000155200000804000c0048800a2
:1020dc000fe2a8000f42a800942bef00962bef0004
:1020ec0000000600881f78008a1f78000004780022
:1020fc00023e810001014100010141002200b100ba
:10210c0002057800460cc30001800900420cc20095
:10211c00100180004f0578004f0478000000060085
:020000040000fa
:0200000401f009
:04000000e6bf000057
:020000040000fa
:0200000401f009
:04000400ff7f00007a
:020000040000fa
:0200000401f009
:040008007fff000076
:020000040000fa
:0200000401f009
:04001400ffff0000ea
:00000001FF
